{
  "contractName": "one",
  "abi": [
    {
      "constant": true,
      "inputs": [],
      "name": "agency",
      "outputs": [
        {
          "name": "",
          "type": "address"
        }
      ],
      "payable": false,
      "stateMutability": "view",
      "type": "function"
    },
    {
      "constant": true,
      "inputs": [],
      "name": "hospital",
      "outputs": [
        {
          "name": "",
          "type": "address"
        }
      ],
      "payable": false,
      "stateMutability": "view",
      "type": "function"
    },
    {
      "constant": false,
      "inputs": [
        {
          "name": "d1",
          "type": "uint256"
        },
        {
          "name": "m1",
          "type": "uint256"
        },
        {
          "name": "y1",
          "type": "uint256"
        },
        {
          "name": "d2",
          "type": "uint256"
        },
        {
          "name": "m2",
          "type": "uint256"
        },
        {
          "name": "y2",
          "type": "uint256"
        }
      ],
      "name": "claim_intimation",
      "outputs": [
        {
          "name": "",
          "type": "bool"
        }
      ],
      "payable": false,
      "stateMutability": "nonpayable",
      "type": "function"
    },
    {
      "constant": false,
      "inputs": [
        {
          "name": "Nursery_charges",
          "type": "uint256"
        },
        {
          "name": "Room_charges",
          "type": "uint256"
        },
        {
          "name": "Miscellaneous_charges",
          "type": "uint256"
        },
        {
          "name": "Surgery_charges",
          "type": "uint256"
        }
      ],
      "name": "Hospitalcharges",
      "outputs": [],
      "payable": false,
      "stateMutability": "nonpayable",
      "type": "function"
    },
    {
      "constant": false,
      "inputs": [
        {
          "name": "Medicine_charges",
          "type": "uint256"
        }
      ],
      "name": "PharmacyCharges",
      "outputs": [],
      "payable": false,
      "stateMutability": "nonpayable",
      "type": "function"
    },
    {
      "constant": false,
      "inputs": [
        {
          "name": "Investigation_charges",
          "type": "uint256"
        }
      ],
      "name": "LabCharges",
      "outputs": [],
      "payable": false,
      "stateMutability": "nonpayable",
      "type": "function"
    },
    {
      "constant": false,
      "inputs": [
        {
          "name": "Total_charges",
          "type": "uint256"
        },
        {
          "name": "Claimed_amount",
          "type": "uint256"
        }
      ],
      "name": "TotalCharges",
      "outputs": [],
      "payable": false,
      "stateMutability": "nonpayable",
      "type": "function"
    },
    {
      "constant": true,
      "inputs": [],
      "name": "CheckConditions",
      "outputs": [
        {
          "name": "",
          "type": "bool"
        }
      ],
      "payable": false,
      "stateMutability": "view",
      "type": "function"
    },
    {
      "constant": false,
      "inputs": [
        {
          "name": "xx",
          "type": "uint256"
        }
      ],
      "name": "Type_of_claim",
      "outputs": [
        {
          "name": "",
          "type": "uint256"
        },
        {
          "name": "",
          "type": "string"
        }
      ],
      "payable": false,
      "stateMutability": "nonpayable",
      "type": "function"
    },
    {
      "constant": false,
      "inputs": [
        {
          "name": "Consultation_charges",
          "type": "uint256"
        },
        {
          "name": "Icu_charges",
          "type": "uint256"
        },
        {
          "name": "Surgeon_charges_F",
          "type": "uint256"
        },
        {
          "name": "Operation_theatre_charges",
          "type": "uint256"
        }
      ],
      "name": "Hospital_data_input",
      "outputs": [
        {
          "name": "",
          "type": "uint256"
        },
        {
          "name": "",
          "type": "uint256"
        },
        {
          "name": "",
          "type": "uint256"
        },
        {
          "name": "",
          "type": "uint256"
        }
      ],
      "payable": false,
      "stateMutability": "nonpayable",
      "type": "function"
    },
    {
      "constant": false,
      "inputs": [
        {
          "name": "Product_name",
          "type": "string"
        },
        {
          "name": "Plan_name",
          "type": "string"
        },
        {
          "name": "Insurance_company",
          "type": "string"
        }
      ],
      "name": "Agency_data_input",
      "outputs": [
        {
          "name": "",
          "type": "string"
        },
        {
          "name": "",
          "type": "string"
        },
        {
          "name": "",
          "type": "string"
        }
      ],
      "payable": false,
      "stateMutability": "nonpayable",
      "type": "function"
    },
    {
      "constant": true,
      "inputs": [],
      "name": "final_Check",
      "outputs": [
        {
          "name": "",
          "type": "bool"
        }
      ],
      "payable": false,
      "stateMutability": "view",
      "type": "function"
    }
  ],
  "bytecode": "0x60806040527350fce5bb2c22f1fd6e2fd542476f879d5911b4ec602b60006101000a81548173ffffffffffffffffffffffffffffffffffffffff021916908373ffffffffffffffffffffffffffffffffffffffff16021790555073bedc33d2e56bedda7ad812c25f72361e7fe282d5602c60006101000a81548173ffffffffffffffffffffffffffffffffffffffff021916908373ffffffffffffffffffffffffffffffffffffffff1602179055503480156100ba57600080fd5b506110a2806100ca6000396000f3006080604052600436106100ba576000357c0100000000000000000000000000000000000000000000000000000000900463ffffffff16806308c156ea146100bf5780630e8e7883146100ec5780631ad28e4b1461011b5780632ac155a2146101485780633724d24f146101f55780633b91ee261461026c5780633f51bb61146102c3578063731b2380146102fa5780637eec5e331461036e5780639ed486f8146105b4578063aa2fedde146105e3578063c71881a31461063a575b600080fd5b3480156100cb57600080fd5b506100ea60048036038101908080359060200190929190505050610685565b005b3480156100f857600080fd5b5061010161068f565b604051808215151515815260200191505060405180910390f35b34801561012757600080fd5b50610146600480360381019080803590602001909291905050506106f1565b005b34801561015457600080fd5b50610173600480360381019080803590602001909291905050506106fb565b6040518083815260200180602001828103825283818151815260200191508051906020019080838360005b838110156101b957808201518184015260208101905061019e565b50505050905090810190601f1680156101e65780820380516001836020036101000a031916815260200191505b50935050505060405180910390f35b34801561020157600080fd5b506102526004803603810190808035906020019092919080359060200190929190803590602001909291908035906020019092919080359060200190929190803590602001909291905050506108c0565b604051808215151515815260200191505060405180910390f35b34801561027857600080fd5b50610281610ba3565b604051808273ffffffffffffffffffffffffffffffffffffffff1673ffffffffffffffffffffffffffffffffffffffff16815260200191505060405180910390f35b3480156102cf57600080fd5b506102f86004803603810190808035906020019092919080359060200190929190505050610bc9565b005b34801561030657600080fd5b5061034360048036038101908080359060200190929190803590602001909291908035906020019092919080359060200190929190505050610bdb565b6040518085815260200184815260200183815260200182815260200194505050505060405180910390f35b34801561037a57600080fd5b50610461600480360381019080803590602001908201803590602001908080601f0160208091040260200160405190810160405280939291908181526020018383808284378201915050505050509192919290803590602001908201803590602001908080601f0160208091040260200160405190810160405280939291908181526020018383808284378201915050505050509192919290803590602001908201803590602001908080601f0160208091040260200160405190810160405280939291908181526020018383808284378201915050505050509192919290505050610c78565b60405180806020018060200180602001848103845287818151815260200191508051906020019080838360005b838110156104a957808201518184015260208101905061048e565b50505050905090810190601f1680156104d65780820380516001836020036101000a031916815260200191505b50848103835286818151815260200191508051906020019080838360005b8381101561050f5780820151818401526020810190506104f4565b50505050905090810190601f16801561053c5780820380516001836020036101000a031916815260200191505b50848103825285818151815260200191508051906020019080838360005b8381101561057557808201518184015260208101905061055a565b50505050905090810190601f1680156105a25780820380516001836020036101000a031916815260200191505b50965050505050505060405180910390f35b3480156105c057600080fd5b506105c9610f07565b604051808215151515815260200191505060405180910390f35b3480156105ef57600080fd5b506105f8610f89565b604051808273ffffffffffffffffffffffffffffffffffffffff1673ffffffffffffffffffffffffffffffffffffffff16815260200191505060405180910390f35b34801561064657600080fd5b5061068360048036038101908080359060200190929190803590602001909291908035906020019092919080359060200190929190505050610faf565b005b8060198190555050565b6000600115156106c16022600001546022600101546022600201546025600001546025600101546025600201546108c0565b15151480156106db5750600115156106d7610f07565b1515145b156106e957600190506106ee565b600090505b90565b80601a8190555050565b600060608260298190555060016029541415610782576000602860006101000a81548160ff0219169083600181111561073057fe5b02179055506040805190810160405280600c81526020017f7265696d627573656d656e740000000000000000000000000000000000000000815250602a9080519060200190610780929190610fd1565b505b600260295414156107fe576001602860006101000a81548160ff021916908360018111156107ac57fe5b02179055506040805190810160405280600881526020017f636173686c657373000000000000000000000000000000000000000000000000815250602a90805190602001906107fc929190610fd1565b505b602860009054906101000a900460ff16600181111561081957fe5b602a808054600181600116156101000203166002900480601f0160208091040260200160405190810160405280929190818152602001828054600181600116156101000203166002900480156108b05780601f10610885576101008083540402835291602001916108b0565b820191906000526020600020905b81548152906001019060200180831161089357829003601f168201915b5050505050905091509150915091565b60006060604051908101604052808881526020018781526020018681525060226000820151816000015560208201518160010155604082015181600201559050506060604051908101604052808581526020018481526020018381525060256000820151816000015560208201518160010155604082015181600201559050506022600201546025600201541480156109625750602260010154602560010154145b801561097b5750601e6022600001546025600001540311155b156109895760019050610b99565b600160226001015414806109a257506003602260010154145b806109b257506005602260010154145b806109c257506007602260010154145b806109d257506008602260010154145b806109e25750600a602260010154145b806109f25750600c602260010154145b8015610a0a5750600160226001015460256001015403145b15610a3b57602560000154602260000154601f0301602181905550601e602154111515610a3a5760019050610b99565b5b602260010154602560010154148015610a5d5750602260020154602560020154145b8015610a765750601e6022600001546025600001540311155b15610a845760019050610b99565b60026022600101541480610a9d57506004602260010154145b80610aad57506006602260010154145b80610abd57506009602260010154145b80610acd5750600b602260010154145b8015610ae55750600160226001015460256001015403145b15610b1657602560000154602260000154601e0301602181905550601e602154111515610b155760019050610b99565b5b600260226002015460256002015403101515610b355760009050610b99565b600160226002015460256002015403148015610b5657506001602560010154145b8015610b675750600c602260010154145b15610b9857602560000154602260000154601f0301602181905550601e602154111515610b975760019050610b99565b5b5b9695505050505050565b602c60009054906101000a900473ffffffffffffffffffffffffffffffffffffffff1681565b81601f81905550806014819055505050565b600080600080602b60009054906101000a900473ffffffffffffffffffffffffffffffffffffffff1673ffffffffffffffffffffffffffffffffffffffff163373ffffffffffffffffffffffffffffffffffffffff16141515610c3d57600080fd5b8760188190555086601c8190555085601d8190555084601e81905550601854601c54601d54601e549350935093509350945094509450949050565b6060806060602b60009054906101000a900473ffffffffffffffffffffffffffffffffffffffff1673ffffffffffffffffffffffffffffffffffffffff163373ffffffffffffffffffffffffffffffffffffffff16141515610cd957600080fd5b8560029080519060200190610cef929190610fd1565b508460039080519060200190610d06929190610fd1565b508360089080519060200190610d1d929190610fd1565b50600260036008828054600181600116156101000203166002900480601f016020809104026020016040519081016040528092919081815260200182805460018160011615610100020316600290048015610db95780601f10610d8e57610100808354040283529160200191610db9565b820191906000526020600020905b815481529060010190602001808311610d9c57829003601f168201915b50505050509250818054600181600116156101000203166002900480601f016020809104026020016040519081016040528092919081815260200182805460018160011615610100020316600290048015610e555780601f10610e2a57610100808354040283529160200191610e55565b820191906000526020600020905b815481529060010190602001808311610e3857829003601f168201915b50505050509150808054600181600116156101000203166002900480601f016020809104026020016040519081016040528092919081815260200182805460018160011615610100020316600290048015610ef15780601f10610ec657610100808354040283529160200191610ef1565b820191906000526020600020905b815481529060010190602001808311610ed457829003601f168201915b5050505050905092509250925093509350939050565b60006064601f54811515610f1757fe5b046014026015541180610f2d5750601654601754115b80610f475750600a601f54811515610f4157fe5b04601b54115b80610f6457506064601f54811515610f5b57fe5b04605002601a54115b80610f735750620186a0601454115b15610f815760009050610f86565b600190505b90565b602b60009054906101000a900473ffffffffffffffffffffffffffffffffffffffff1681565b836015819055508260178190555081601b819055508060168190555050505050565b828054600181600116156101000203166002900490600052602060002090601f016020900481019282601f1061101257805160ff1916838001178555611040565b82800160010185558215611040579182015b8281111561103f578251825591602001919060010190611024565b5b50905061104d9190611051565b5090565b61107391905b8082111561106f576000816000905550600101611057565b5090565b905600a165627a7a723058207794b5b2040d38cefeca3ef9b3233a6dc1a4ad71bd7104e0ad958f08e9d1b2cb0029",
  "source": "pragma solidity ^0.4.20;\r\n\r\n\r\ncontract one{\r\n    uint claim_no;\r\n    enum claim_status {settled , approved , not_approved , closed}\r\n    enum type_of_claim {reimbusement , cashless}\r\n    uint policy_no;\r\n    enum policy_type {retail , corporate}\r\n    string product_name;\r\n    string plan_name;\r\n    string policy_start_date;\r\n    string policy_end_date;\r\n    uint premium;\r\n    uint simple_interest;\r\n    string insurance_company;\r\n    string dob;\r\n    string gender;\r\n   // uint claim_intimation_date;\r\n    uint diagnosis_code;\r\n    uint procedure_code;\r\n    uint hospital_code;\r\n    string hospital_name;\r\n    string hospital_address;\r\n    string hospital_state;\r\n    // string hospital_city;\r\n    uint hospital_reg_no;\r\n    uint hospital_pan;\r\n    uint hospital_pincode;\r\n   // uint date_of_discharge;\r\n    uint claimed_amount;\r\n    uint nursery_charges;\r\n    uint surgery_charges;\r\n    uint room_charges;\r\n    uint consultation_charges;\r\n    uint investigation_charges;\r\n    uint medicine_charges;\r\n    uint miscellaneous_charges;\r\n    uint ICU_charges;\r\n    uint surgeon_charges_F;\r\n    uint operation_theatre_charges;\r\n    uint total_charges;\r\n    string reason_for_rejection;\r\n    enum status {approved , unapproved}\r\n    \r\n    \r\n    uint count;\r\n    struct date{\r\n        uint day;\r\n        uint month;\r\n        uint year;\r\n    }\r\n    date date_of_discharge;\r\n    date claim_intimation_date;\r\n    function claim_intimation(uint d1 , uint m1 , uint y1 , uint d2 , uint m2 , uint y2) public returns(bool){\r\n        date_of_discharge = date({day:d1,month:m1,year:y1});\r\n        claim_intimation_date = date({day:d2,month:m2,year:y2});\r\n        \r\n        if((claim_intimation_date.year == date_of_discharge.year) && (claim_intimation_date.month == date_of_discharge.month) && (claim_intimation_date.day - date_of_discharge.day <= 30)){\r\n            return true;\r\n            \r\n        }\r\n        \r\n        if((date_of_discharge.month == 1 || date_of_discharge.month == 3 || date_of_discharge.month == 5 || date_of_discharge.month == 7 || date_of_discharge.month == 8 || date_of_discharge.month == 10 || date_of_discharge.month == 12) && (claim_intimation_date.month - date_of_discharge.month == 1)){\r\n            count = ((31 - date_of_discharge.day) + claim_intimation_date.day);\r\n            if(count <= 30){\r\n                return true;\r\n            }\r\n        }\r\n        \r\n        if(((claim_intimation_date.month == date_of_discharge.month) && (claim_intimation_date.year == date_of_discharge.year)) && (claim_intimation_date.day - date_of_discharge.day <= 30)){\r\n            return true;\r\n        }\r\n        \r\n        if((date_of_discharge.month == 2 || date_of_discharge.month == 4 || date_of_discharge.month == 6 || date_of_discharge.month == 9 || date_of_discharge.month == 11) && (claim_intimation_date.month - date_of_discharge.month == 1)){\r\n            count = ((30 - date_of_discharge.day) + claim_intimation_date.day);\r\n            if(count <= 30){\r\n                return true;\r\n            }\r\n        }\r\n        \r\n        if(claim_intimation_date.year - date_of_discharge.year >=2 ){\r\n            return false;\r\n        }\r\n        \r\n        if((claim_intimation_date.year - date_of_discharge.year  == 1) && claim_intimation_date.month == 1 && date_of_discharge.month == 12){\r\n            count = ((31 - date_of_discharge.day)+(claim_intimation_date.day));\r\n            if(count <= 30){\r\n                return true;\r\n            }\r\n        }\r\n        \r\n    }\r\n    \r\n    \r\n    function Hospitalcharges(uint Nursery_charges , uint Room_charges , uint Miscellaneous_charges, uint Surgery_charges ) public {\r\n        nursery_charges = Nursery_charges;\r\n        room_charges = Room_charges;\r\n        miscellaneous_charges = Miscellaneous_charges;\r\n        surgery_charges = Surgery_charges;\r\n        \r\n    }\r\n    \r\n    function PharmacyCharges(uint Medicine_charges) public {\r\n        medicine_charges = Medicine_charges;\r\n    }\r\n    \r\n    function LabCharges(uint Investigation_charges) public {\r\n        investigation_charges = Investigation_charges;\r\n    }\r\n    \r\n    function TotalCharges(uint Total_charges , uint Claimed_amount) public{\r\n        total_charges = Total_charges;\r\nclaimed_amount = Claimed_amount;\r\n    }\r\n    \r\n    \r\n    function CheckConditions() public view returns(bool){\r\n        if((nursery_charges>(20*(total_charges/100))) || (room_charges > surgery_charges) || (miscellaneous_charges > (total_charges/10)) || (medicine_charges > (80*(total_charges/100))) || (claimed_amount > 100000)){\r\n            return false;\r\n        }\r\n        else{\r\n            return true;\r\n        }\r\n \r\n    }\r\n    \r\n    type_of_claim TYPE_OF_CLAIM;\r\n    uint n;\r\n    string a;\r\n    function Type_of_claim(uint xx) public returns(uint,string){\r\n        n = xx;\r\n        if(n == 1){\r\n            TYPE_OF_CLAIM = type_of_claim.reimbusement;\r\n            a = \"reimbusement\";\r\n        }\r\n        if(n == 2){\r\n            TYPE_OF_CLAIM = type_of_claim.cashless;\r\n            a = \"cashless\";\r\n        }\r\n        return (uint(TYPE_OF_CLAIM),a);\r\n    }\r\n    \r\n    \r\n    address public hospital = 0x50fce5bb2c22f1fd6e2fd542476f879d5911b4ec;\r\n    modifier onlyOwner {\r\n        require(msg.sender == hospital);\r\n        _;\r\n    }\r\n    \r\n    function Hospital_data_input(uint Consultation_charges , uint Icu_charges , uint Surgeon_charges_F , uint Operation_theatre_charges) onlyOwner public  returns(uint,uint,uint,uint){\r\n        consultation_charges = Consultation_charges;\r\n        ICU_charges = Icu_charges;\r\n        surgeon_charges_F = Surgeon_charges_F;\r\n        operation_theatre_charges = Operation_theatre_charges;\r\n        return(consultation_charges,ICU_charges,surgeon_charges_F,operation_theatre_charges);\r\n    }\r\n    \r\n    address public agency = 0xbedc33d2e56bedda7ad812c25f72361e7fe282d5;\r\n    modifier onlyAgency{\r\n        require(msg.sender == hospital);\r\n        _;\r\n    }\r\n    \r\n    function Agency_data_input(string Product_name , string Plan_name , string Insurance_company) onlyAgency public returns(string,string,string){\r\n        product_name = Product_name;\r\n        plan_name = Plan_name;\r\n        insurance_company = Insurance_company;\r\n        return (product_name , plan_name , insurance_company);\r\n    }\r\n    \r\n    \r\n    function final_Check() public view returns(bool){\r\n        if(claim_intimation(date_of_discharge.day , date_of_discharge.month,date_of_discharge.year,claim_intimation_date.day,claim_intimation_date.month,claim_intimation_date.year) == true && CheckConditions() == true){\r\n            return true;\r\n        }\r\n        \r\n        else{\r\n            return false;\r\n        }\r\n    }\r\n\r\n\r\n\r\n    \r\n}",
  "sourcePath": "/Users/namanmanchanda/Desktop/newtruff/contracts/one.sol",
  "compiler": {
    "name": "solc",
    "version": "0.4.24+commit.e67f0147.Emscripten.clang"
  },
  "schemaVersion": "2.0.1",
  "updatedAt": "2018-07-15T05:49:11.888Z"
}